:020000040800F2
:10000000C0100020E55E0008CD050008CF050008FF
:10001000D3050008D7050008DB0500080000000034
:10002000000000000000000000000000DF050008E4
:10003000E105000800000000E3050008E5050008F0
:10004000FF5E0008FF5E0008FF5E0008FF5E00081C
:10005000FF5E0008FF5E0008FF5E0008FF5E00080C
:10006000FF5E0008FF5E0008FF5E0008FF5E0008FC
:10007000FF5E0008FF5E0008FF5E0008FF5E0008EC
:10008000FF5E0008FF5E0008FF5E0008FF5E0008DC
:10009000FF5E0008FF5E0008FF5E0008FF5E0008CC
:1000A000FF5E0008FF5E0008FF5E0008FF5E0008BC
:1000B000FF5E000897080008FF5E0008FF5E00086A
:1000C000FF5E0008FF5E0008FF5E0008FF5E00089C
:1000D000FF5E0008993D000897170008750B00089F
:1000E000FF5E0008FF5E0008FF5E0008FF5E00087C
:1000F000FF5E0008FF5E0008FF5E0008FF5E00086C
:10010000FF5E0008FF5E0008FF5E0008FF5E00085B
:10011000FF5E0008FF5E0008FF5E0008FF5E00084B
:10012000FF5E0008FF5E0008FF5E0008FF5E00083B
:10013000DFF80CD006F062F80048004767010008BD
:10014000C010002010B541F61F41092000F076FBD9
:100150004FF4165000F01FFD1121F74805F0F3FE93
:1001600002F0B1FC10BD0EB50024002503F050FDD7
:100170004FF4A06003F064FE00F056FB0120EF494D
:1001800008604FF4E13003F0BBFDFFF7DBFF01F047
:1001900021F901F05CFA00F0A7FB00F0B0FEE8489E
:1001A0000123802200210090084601F0D8F80022A7
:1001B0000221104601F0A2F801220221122001F0D2
:1001C0009DF802221146242001F098F80322022112
:1001D000362001F093F804220221482001F08EF825
:1001E000052202215A2001F089F8062202216C2002
:1001F00001F084F807220421002001F07FF8082292
:100200000421122001F07AF809220421242001F0AF
:1002100075F80A220421362001F070F80B2204211F
:10022000482001F06BF80C2204215A2001F066F8F6
:100230000D2204216C2001F061F810232D220621EB
:10024000482000F0EBFE0E2206215A2001F056F85D
:100250000F2206216C2001F051F8012241F2883171
:10026000B84800F0FDFB9FE115B1012D7DD1D3E031
:10027000B4480078012815D10020B2490870B2486E
:10028000B0F8D400642190FBF1F201FB12000A21C6
:1002900090FBF1F0072806D101224FF4FA71A9482A
:1002A00000F0DEFBB4E007220221012000F046FE50
:1002B000012242F21071A34800F0D2FBA24890F84C
:1002C000D8000A2190FBF1F03030C6B2324602214C
:1002D000182000F0F7FE9C4890F8D8000A2190FB07
:1002E000F1F201FB12003030C6B232460221282062
:1002F00000F0E8FE3A220221382000F0E3FE9248A6
:1003000090F8D9000A2190FBF1F03030C6B23246A5
:100310000221482000F0D6FE8B4890F8D9000A212F
:1003200090FBF1F201FB12003030C6B232460221DE
:10033000582000F0C7FE8448B0F8D400642190FB38
:10034000F1F201FB12000A2190FBF1F03030C6B24D
:10035000102332460621202000F060FE7A48B0F8D3
:10036000D4000A2190FBF1F200E0C2E001FB120090
:100370003030C6B2102332460621282000F04EFE4F
:1003800010232D220621302000F048FE6E4890F800
:10039000D6000A2190FBF1F03030C6B2102332466D
:1003A0000621382000F03AFE674890F8D6000A216E
:1003B00090FBF1F201FB12003030C6B2102332463E
:1003C0000621402000F02AFE10232D22062148207D
:1003D00000F024FE5C4890F8D7000A2190FBF1F071
:1003E0003030C6B2102332460621502000F016FEEF
:1003F000554890F8D7000A2190FBF1F201FB12005A
:100400003030C6B2102332460621582000F006FED6
:1004100001204E4908706CE04C480078012864D1F6
:1004200000204A49087007220221084600F086FD94
:100430000122C821454800F013FB102202210020B0
:1004400000F05CFF11220221122000F057FF102360
:100450003A220221242000F0E1FD152202216C2025
:1004600000F04CFF1020032300909DF8082002218B
:10047000362000F0E2FE12220421002000F03EFFB0
:1004800013220421122000F039FF10233A22042104
:10049000242000F0C3FD1023252204216C2000F04D
:1004A000BDFD1020032300909DF804200421362078
:1004B00000F0C3FE102350220621002000F0AEFD04
:1004C000102348220621122000F0A8FD10233A2212
:1004D0000621242000F0A2FD102000901C48028874
:1004E00004230621362000F0A8FE012015490870DB
:1004F00000BF00BF17480078012844D100201549EB
:10050000087001224FF4FA71124800F0A9FA9DF820
:1005100004000949C1F805000D480088C1F80D0024
:100520000B480088B0F57A7F16DD0020034908608B
:1005300001200149087015E0D805002084012142FE
:1005400056670008010000208C0A002002000020ED
:100550001C00002003000020012014490860002036
:10056000134908709DF808001149C1F8010001A95C
:1005700002A801F040F80F4890F8D3000C49C1F8E8
:10058000090002F0E5FB0C480078844209D00A48D3
:1005900004781CB109A005F08DFE02E009A005F069
:1005A00089FE034802F0BAFC5EE6000084012142A5
:1005B000D80500208C0A002000000020636F6E6EBA
:1005C00065637400636C6F7365000000704700BF63
:1005D000FEE700BFFEE700BFFEE700BFFEE7704793
:1005E00070477047704700000CB5002001900090E4
:1005F0006C48006840F480306A49086000BF694870
:10060000006800F4003000900198401C01900098B0
:1006100018B90198B0F5A06FF1D16248006800F4F4
:10062000003010B10120009001E0002000900098FF
:10063000012843D15C48006840F010005A49086026
:100640000846006820F0030008600846006840F093
:1006500002000860534840685249486008464068B4
:1006600048600846406840F480604860084640683A
:1006700020F47C1048600846406840F4E810486068
:100680000846006840F08070086000BF4548006878
:1006900000F000700028F9D04248406820F00300C4
:1006A000404948600846406840F00200486000BF8A
:1006B0003C48406800F00C000828F9D10CBD10B58A
:1006C000FFF792FF10BD10B53648006840F00100FA
:1006D0003449086008464068344908403149486058
:1006E00008460068324908402E49086008460068FC
:1006F00020F4802008600846406820F4FE0048602E
:100700004FF41F008860FFF7DAFF4FF000602949BF
:10071000086010BD10B5002100200022214B5B684D
:1007200003F00C0121B1042906D0082928D107E0E3
:10073000214B224C236027E01F4B204C236023E0F9
:10074000184B5B6803F47010164B5B6803F480323F
:10075000022303EB904022B9194B4343174C23600B
:100760000DE0104B5B6803F4003323B1144B43439B
:10077000124C236003E0104B4343104C236003E012
:100780000D4B0E4C236000BF00BF064B5B68C3F3EC
:1007900003130C4CE15C094B1B68CB40074C2360F6
:1007A00010BD000000100240002002400000FFF8D1
:1007B000FFFFF6FE08ED00E000127A0004000020C2
:1007C00000093D000800002008B50121102004F0B8
:1007D00013FA4FF40050ADF8000010208DF803001C
:1007E00003208DF802006946124803F049FF4FF4D8
:1007F0000051104803F0F1FF08BD08B501210420A5
:1008000004F0FAF90220ADF8000010208DF8030082
:1008100003208DF802006946074803F031FF0221EA
:10082000054803F0DAFF08BD10B5FFF7CDFFFFF76D
:10083000E4FF10BD00100140000801407FB50546EF
:100840000C460121022004F0E4F9ADF80850ADF89F
:1008500004400020ADF80A00ADF8060001A91E48CA
:1008600004F002FB012211461B4804F074FE1D2017
:100870008DF8000000208DF8010003208DF80200A3
:1008800001208DF80300684603F0DFFA01211248C9
:1008900004F046FE7FBD10B501210F4805F009F9AF
:1008A000C8B101210C4805F015F900F058FF00F01F
:1008B00019F90A480068401C0849086008460068A1
:1008C000B0F5FA7F07DB0020086005480068C043E8
:1008D0000449C1F8B40110BD000400401800002014
:1008E000B40122420000224200B591B00121084625
:1008F00004F075F901214FF4017004F07DF94FF413
:10090000004004F0DDF80120ADF82C0000208DF847
:100910002F000BA94E4803F0B3FE012003900020E6
:1009200002900A904B4801904FF48060079080201D
:1009300005902020089048480090801506900020DF
:1009400004904FF4005009906946444803F0B0FD0C
:100950000121424803F0D7FD3F484C3803F0DEFA4E
:1009600000200C9001208DF834008DF835004FF4F4
:1009700060200E9000200F9001208DF840000CA9FF
:1009800035484C3803F0F1FA012133484C3803F074
:1009900018FB012130484C3803F01EFB07230122CD
:1009A00000212D484C3803F078FB2B484C3803F0DD
:1009B0002AFB00BF28484C3803F02AFB0028F9D155
:1009C00025484C3803F02EFB00BF23484C3803F079
:1009D0002EFB0028F9D101211F484C3803F031FBD0
:1009E00011B000BD70B504460D4607232A462146C6
:1009F00019484C3803F051FB012117484C3803F0DB
:100A000020FB00BF022114484C3803F08BFC002867
:100A1000F8D011484C3803F0A7FB70BD2DE9F04128
:100A20000746884614460025002609E04146384618
:100A3000FFF7D8FF0544052003F027F9701CC6B264
:100A4000A642F3DBB5FBF4F080B2BDE8F081000014
:100A5000000801401C0000204C2401400800024016
:100A600070B503460C460025002100BF17E0404842
:100A700000EB01104068984210D13D4800EB011096
:100A8000007801280AD13A4800EB01108460384808
:100A900000EB011002730120054670BD491C0A29B4
:100AA000E5DB002119E0324800EB01100078012855
:100AB00012D001202E4E06EB011630702C4800EBB0
:100AC000011084602A4800EB01100273284800EBF3
:100AD00001104360012502E0491C0A29E3DB00BF45
:100AE0002846DAE7002000BF26E0214901EB00118B
:100AF000097801291FD11E4901EB00118968491E9F
:100B00001B4A02EB00129160194901EB0011896840
:100B100089B90021164A02EB00121170144A02EB47
:100B200000129160124901EB0011097B104A02EB9F
:100B3000001252681170401C0A28D6DB704710B5AD
:100B40000246002000BF10E0094B03EB00135B6876
:100B5000934209D10023064C04EB00142370044B8C
:100B600003EB00135B681970401C0A28ECDB10BD16
:100B7000EC05002008B540F22551304805F06EF92B
:100B800040B12E4805F0EAF8C0B200900121684655
:100B900000F0B0FE08BD10B586B004460121082063
:100BA00004F02AF80121880404F033F8234804F003
:100BB00095FF4FF48060ADF8100003208DF812000F
:100BC00018208DF8130004A91D4803F059FD4FF4B7
:100BD0000060ADF8100004208DF8130004A9184837
:100BE00003F04EFD00940020ADF80400ADF80600BF
:100BF000ADF80800ADF80C000C20ADF80A0069460D
:100C00000E4804F0AEFF01210C4805F036F8012231
:100C100040F22551094805F03CF827208DF81400D2
:100C200001208DF8150003208DF8160001208DF8A5
:100C3000170005A803F009F906B010BD00480040F0
:100C4000000C014010B50421FE4803F0C6FD082148
:100C5000FC4803F0C4FD012002F0F3FF0821F9482D
:100C600003F0BBFD10BD10B50421F64803F0B5FD3F
:100C7000012002F0E6FF0421F24803F0B0FD10BDB0
:100C80002DE9F04105462C460421EE4803F0A7FD6E
:100C900000261FE0274607F08007802F04D1082197
:100CA000E84803F09AFD03E00821E64803F097FDC9
:100CB0006006040E0421E34803F08FFD012002F0DA
:100CC000C0FF0421DF4803F08AFD012002F0B9FFD4
:100CD000701CC6B2082EDDDBBDE8F08110B5042122
:100CE000D84803F07AFD0821D64803F076FD0120AC
:100CF00002F0A7FF0821D34803F071FD012002F0A4
:100D0000A0FF0421CF4803F06AFD10BD10B50446D2
:100D1000FFF7E4FF7820FFF7B3FFFFF7A4FF002001
:100D2000FFF7AEFFFFF79FFF2046FFF7A9FFFFF792
:100D30009AFFFFF787FF10BD10B50446FFF7CEFFFF
:100D40007820FFF79DFFFFF78EFF4020FFF798FF09
:100D5000FFF789FF2046FFF793FFFFF784FFFFF7B8
:100D600071FF10BD70B504460D461DB1E0B2FFF72E
:100D7000E3FF02E0E0B2FFF7C9FF70BD70B50024E9
:100D80001BE004F1B0000021FFF7ECFF0021084652
:100D9000FFF7E8FF00211020FFF7E4FF002508E03F
:100DA000A94901EBC501085D0121FFF7DBFF681CC4
:100DB000C5B2802DF4DB601CC4B2082CE1DB70BD31
:100DC000F0B5144600267F2801DC3F2900DDF0BD88
:100DD0000B46CF1701EB5777FF10C7F10707FAB2A1
:100DE000CF1701EB5777FF10A1EBC707FDB2C5F195
:100DF00007070123BB40DEB24CB1934B03EBC003AA
:100E00009B5C3343904F07EBC007BB5408E08E4B0D
:100E100003EBC0039B5CB3438B4F07EBC007BB5492
:100E200000BFD4E72DE9F04706460F4690469946A5
:100E3000DDF820A034460CE03D4606E05246294647
:100E40002046FFF7BDFF681CC5B24D45F6DD601CAE
:100E5000C4B24445F0DDFFF791FFBDE8F08770B5FF
:100E60000646002418E004F1B0000021FFF77AFFE5
:100E700000210846FFF776FF00211020FFF772FFE0
:100E8000002505E001213046FFF76CFF681CC5B264
:100E9000802DF7DB601CC4B2082CE4DB70BD70B59C
:100EA00004460D4605F1B0000021FFF75BFF10215D
:100EB00041EA14100021FFF755FF04F00F00002154
:100EC000FFF750FF70BD10B500218D20FFF74AFFDE
:100ED00000211420FFF746FF0021AF20FFF742FF5B
:100EE00010BD10B500218D20FFF73CFF0021102020
:100EF000FFF738FF0021AE20FFF734FF10BD70B5BB
:100F0000002418E004F1B0000021FFF72BFF0021BE
:100F10000846FFF727FF00211020FFF723FF0025D9
:100F200005E001210020FFF71DFF681CC5B2802DE0
:100F3000F7DB601CC4B2082CE4DB70BD2DE9F04186
:100F400005460E46174641480078A84220D0344650
:100F50001CE004F1B0000021FFF704FF0021084667
:100F6000FFF700FF00211020FFF7FCFE4FF0000804
:100F700007E001210020FFF7F5FE08F1010000F075
:100F8000FF08B8F1800FF4DB601CC4B2BC42E0DDA6
:100F90002E480570BDE8F0812DE9F04105460E466A
:100FA0002C4618E004F1B0000021FFF7DBFE002121
:100FB0000846FFF7D7FE00211020FFF7D3FE0027D9
:100FC00005E001210020FFF7CDFE781CC7B2802F7D
:100FD000F7DB601CC4B2B442E4DDBDE8F08170B55B
:100FE000002418E004F1B0000021FFF7BBFE00214F
:100FF0000846FFF7B7FE00211020FFF7B3FE0025DB
:1010000005E001210846FFF7ADFE681CC5B2802D42
:10101000F7DB601CC4B2082CE4DB70BD2DE9F0479F
:1010200007460E469046994600250024A8F1200068
:10103000C5B27F2F02DD0027B01CC6B2B9F1100F78
:101040002BD105E0000801408C060020A2050020FD
:1010500031463846FFF723FF002408E004EB051172
:10106000FE4A505C0121FFF77DFE601CC4B2082CD3
:10107000F4DB701CC1B23846FFF711FF002409E011
:1010800004EB05110831F54A505C0121FFF76AFEB7
:10109000601CC4B2082CF3DB12E031463846FFF77F
:1010A000FEFE00240AE005EB4501ED4A02EB41019A
:1010B000085D0121FFF756FE601CC4B2062CF2DB6E
:1010C000BDE8F0872DE9F04180460E461746002521
:1010D0000024A7F13000C5B20A2D04DD3A2F02D05A
:1010E000601EBDE8F081A806050E3A2F00D1282524
:1010F00031464046FFF7D3FE002409E0D94901EB11
:10110000851151F824000121FFF72CFE601CC4B2A8
:10111000102CF3DB701CC1B24046FFF7C0FE002468
:101120000AE0D04A691C02EB811151F82400012128
:10113000FFF718FE601CC4B2102CF2DBB01CC1B269
:101140004046FFF7ACFE00240AE0C64AA91C02EBA9
:10115000811151F824000121FFF704FE601CC4B284
:10116000102CF2DBF01CC1B24046FFF798FE0024C1
:101170000AE0BC4AE91C02EB811151F8240001216C
:10118000FFF7F0FD601CC4B2102CF2DB0120A8E7D1
:101190002DE9F04107460E461546002431463846F3
:1011A000FFF77DFE00BF05E0285D0121FFF7DAFDB6
:1011B000601CC4B2202CF7DB701CC1B23846FFF7AC
:1011C0006EFE002407E004F12001685C0121FFF7B6
:1011D000C9FD601CC4B2202CF5DBB01CC1B238467E
:1011E000FFF75DFE002407E004F14001685C012187
:1011F000FFF7B8FD601CC4B2202CF5DBF01CC1B2B7
:101200003846FFF74CFE002407E004F16001685CFB
:101210000121FFF7A7FD601CC4B2202CF5DB0120E3
:10122000BDE8F08110B50246012000E050430B1EDE
:10123000A1F10104E1B2F9D110BD2DE9FF5F07462C
:1012400091461E460E9D4FF0000A002435E0301BEB
:10125000401EC1B20A20FFF7E5FFB9FBF0F00A21FA
:10126000B0FBF1F201FB1208BAF1000F14D1701EAD
:10127000A04211DDB8F1000F0CD1AB4605EBDB71DC
:10128000491001FB0471C8B22B4620220199FFF7D7
:10129000C5FE10E04FF0010AAB4605EBDB714910CB
:1012A00001FB0471C8B208F13001CAB22B460199A2
:1012B000FFF7B4FE00BF601CC4B2B442C7DBBDE898
:1012C000FF9F2DE9F04104460F461546984600263B
:1012D0000FE0AA5D434639462046FFF79FFE04F122
:1012E0000800C4B2782C02DD0024B81CC7B2701C00
:1012F000C6B2A85D0028ECD1BDE8F0812DE9F0412F
:1013000080460E461546002731464046FFF7C7FD8A
:1013100000240AE0544A02EB8511085D0121FFF721
:1013200021FD781CC7B2601CC4B2102CF2DB701C0B
:10133000C1B24046FFF7B3FD00240CE06900491C30
:10134000494A02EB4111085D0121FFF70BFD781CB2
:10135000C7B2601CC4B2102CF0DBBDE8F0812DE9EF
:10136000F05F06460F4690461C46DDF828A04FF079
:10137000000BE11704EB5171C910A4EBC10131B9A5
:101380002046E11704EB5171C1F3C70506E0204682
:10139000E11704EB5171C910491CCDB23D4615E06F
:1013A00029463046FFF77BFDB1460BE059460BF16D
:1013B000010B1AF801000121FFF7D4FC09F101002B
:1013C00000F0FF09C145F1DB681CC5B2A542E7DBAF
:1013D000BDE8F09F08B50121042003F00DFC0C20AE
:1013E000ADF8000010208DF8030003208DF80200F6
:1013F00069461E4803F044F90C211C4803F0EDF93E
:101400004FF47A7002F041FC0021AE20FFF7AAFCF5
:1014100000210846FFF7A6FC00211020FFF7A2FCE0
:1014200000214020FFF79EFC0021B020FFF79AFC2E
:1014300000218120FFF796FC0021FF20FFF792FC9E
:101440000021A120FFF78EFC0021A620FFF78AFCD7
:101450000021A820FFF786FC002109E0606C00084D
:10146000386A00085072000822000020000801407D
:101470003F20FFF777FC0021C820FFF773FC002115
:10148000D320FFF76FFC00210846FFF76BFC00211B
:10149000D520FFF767FC00218020FFF763FC0021C7
:1014A000D820FFF75FFC00210520FFF75BFC00213F
:1014B000D920FFF757FC0021F120FFF753FC002152
:1014C000DA20FFF74FFC00211220FFF74BFC002130
:1014D000DB20FFF747FC00213020FFF743FC002111
:1014E0008D20FFF73FFC00211420FFF73BFC00217B
:1014F000AF20FFF737FC08BD10B56448006820F442
:101500007000624908600846006840F440100860B6
:1015100000205F490860142002F0B7FB01205D49FC
:10152000C1F8B4011E2002F08CFB10BD10B50024E0
:101530005648006820F47000544908600846006866
:1015400040F40000086004E0601CC4B2012002F016
:1015500078FB4F488038006808B1642CF4DB642CB9
:1015600001DB012010BD002404E0601CC4B2012096
:1015700002F067FB46488038006808B9642CF4DB49
:10158000642C01DB0120EDE70020EBE710B500241F
:1015900004E0601CC4B2012002F053FB3C488038D8
:1015A000006808B1642CF4DB002404E0601CC4B2C1
:1015B000012002F046FB36488038006808B9642CE8
:1015C000F4DB282002F03DFB31488038006808B188
:1015D000012010BD0020FCE770B50024002506E0C6
:1015E0006006040EFFF7D2FF0443681CC5B2082D45
:1015F000F6DB204670BD7CB505460E46FFF77CFF46
:10160000FFF794FFF8B9002405E0FFF7E5FF0DF8B8
:101610000400601CC4B2052CF7DB9DF800009DF8A7
:10162000011008449DF8021008449DF80310084476
:101630009DF80410884208D19DF8000030709DF894
:101640000200287001E001207CBD0020FCE708B505
:101650000121082003F0D0FA4FF40050ADF800004B
:1016600010208DF8030003208DF80200694607481A
:10167000001F03F005F84FF400510448001F03F069
:10168000ACF8FFF739FFFFF751FF08BD040C01402C
:10169000B4812142008021422DE9FF4706460D46D4
:1016A00092460027A8462C46A94606B125B94FF018
:1016B000FF3004B0BDE8F087002744E0701CC05D37
:1016C00011283CD2DFE800F0090A0B3B3B0C0D0E61
:1016D000123B3B3B3B16202F1C0031E030E02FE05B
:1016E0002EE02DE001205449087029E000205249E5
:1016F000087025E098F8001050A004F0DBFD1FE012
:1017000051A004F0D7FD1BE0A17962792379A0688C
:10171000CDE90032CDE90210E378A27821884FA00C
:1017200004F0C8FD0CE058A004F0C4FD5BA004F078
:10173000C1FD99F800105DA004F0BCFD00E000BF01
:1017400000BF781CC7B23078B842B7DC0020B0E7E1
:10175000704710B511215A4804F0F5FB10BD5948E7
:101760000068401C57490860704756480068704739
:10177000012080F3138800BF00BF5348006800F4C5
:10178000E06052490843001D4F490860BFF34F8F86
:1017900000BF00BFFEE708B50020009001216846A9
:1017A00000F0A8F808BD2DE9F04105460E460024DA
:1017B00015B9601EBDE8F081FFF7D7FF0746324636
:1017C000394643A004F076FD00240DE0295D45A0D4
:1017D00004F070FD022C06D3285DFF2803D15521AB
:1017E00040A004F067FD641CB442EFD33FA004F0B6
:1017F00061FD00241BE0295D3D4804F0ABFA00BF09
:1018000040213B4804F014FB0028F9D0022C0DD3F2
:10181000285DFF280AD15521354804F09BFA00BF06
:101820004021334804F004FB0028F9D0641CB44282
:10183000E1D33046BEE70000000000205253534978
:101840002025640A000000005452414E535041527A
:10185000454E545F44415441200A000057494649CF
:101860005F4E5450203A205B25642D25642D25645D
:1018700020253032643A253032643A253032645DB6
:101880005B25645D200A00004D4F44554C452049BE
:101890004E464F202E2E2E0A0000000057494620AB
:1018A0004D4F44554C45202E2E2E0A006D6F647509
:1018B0006C6554797065203A205B25645D200A00D0
:1018C000D8050020A40500200CED00E00000FA057A
:1018D0004D435532576946695B2534643A25346473
:1018E0005D3A200025303278200000000A00000018
:1018F0000048004070B504460D46002624B9F6A005
:1019000004F0D8FC701E70BD2A462146FA4802F049
:1019100031F90646AE4205D0F8A004F0CBFC4FF0FA
:10192000FF30F0E73046EEE710B504462CB9FAA0D8
:1019300004F0C0FC4FF0FF3010BD0020206060605C
:10194000FF20207060700020F6E770B504460D4659
:101950002CB9FCA004F0AEFC4FF0FF3070BD22218A
:10196000FE4804F0F0FA2A462146FC48801C04F0A8
:10197000D1FAFA484138A0F85D50012180F84210B0
:10198000FFF7F3FEF5494139C1F85F000020E5E7B4
:101990002DE9F04104460D460027002604B135B973
:1019A000EFA004F087FC4FF0FF30BDE8F081FFF7B7
:1019B000DCFE064628782178884203D0F2A004F0A5
:1019C00079FC0127D5F80100D4F80110884209D02C
:1019D000F3480068301AB0F57A7F03D3F1A004F021
:1019E00069FC0127D5F80500D4F80510884209D014
:1019F000EB480068301AB0F57A7F03D3EEA004F00C
:101A000059FC0127D5F80900D4F80910884209D0FB
:101A1000E3480068301AB0F57A7F03D3EBA004F0F6
:101A200049FC0127D5F80D00D4F80D10884209D0E3
:101A3000DB480068301AB0F57A7F03D3E8A004F0E1
:101A400039FC0127012F03D1FFF78FFED44908602D
:101A50003846AAE7F8B505460C4605B12CB9E5A00D
:101A600004F028FC4FF0FF30F8BD002020706D1C02
:101A700015F8010C2346012200210090084601F0D0
:101A80009FFF0121204601F035FE2A680021012038
:101A900001F049FE60706A680021012001F043FEF8
:101AA000A070AA680021012001F03DFEE070EA6804
:101AB0006D1E0021012001F036FE86B2304601F095
:101AC00060FCA0800020CFE72DE9F04780460C465F
:101AD00017461D46089E94F800900CB105B136B922
:101AE000D0A004F0E7FB4FF0FF30BDE8F087B8F17D
:101AF000000F4CD112219948223004F024FAB9F198
:101B0000010F06D0B9F1020F07D0B9F1050F3CD192
:101B10001BE000250020306038E090496A3101F177
:101B20001700FFF797FF60B98C486A300168C5F865
:101B300001108088A5F80500032028700720306078
:101B400002E04FF0FF30D0E720E07A1E611C8348AE
:101B5000263804F0DFF9781E80494139C1F8350094
:101B600010217E48413890F86320643081546438F5
:101B700090F86300401C7949413981F863000320E3
:101B8000087000250020306000E000BF00BF00208A
:101B9000ABE72DE9F04F8FB006468B4617469946C6
:101BA00000200E9082468046002501ACBBF1000F5C
:101BB00006D1A8A004F07EFB681E0FB0BDE8F08F30
:101BC000B9F1010F06D196F8088008F106003844F3
:101BD00085B201E0781D85B22B4642463946A3A066
:101BE00004F068FBFF2004F8010B04F8010B281235
:101BF00004F8010B04F8015B3079401C04F8010B78
:101C0000707904F8010B002004F8010B04F8019B23
:101C10004FF0080AB9F1010F0DD104F8018B0AF158
:101C2000010A01A901EB0A00424606F1090104F08C
:101C300071F9C244444437B101A901EB0A003A46A4
:101C4000594604F067F9291D01A801F087FB0146F8
:101C5000E81C01AA1154291D01A8FFF7A4FD0E904C
:101C60000E98002806DA8BA00E9904F023FB6FF083
:101C70000100A2E70020A0E72DE9FF4105460E463E
:101C80001746002436B989A004F014FB601E04B086
:101C9000BDE8F0816846FFF747FE05208DF8040097
:101CA0002E48413890F83910D0F83900401C2B4AA2
:101CB000413AC2F83900C8B28DF805008DF80850D5
:101CC0000C2001F05EFBADF802003A4631460DF102
:101CD000090004F01FF9FDE04552523A2067697A85
:101CE0005075744461746120627566206973206563
:101CF0006D707479200A0000AD0B00204552523AF5
:101D0000204661696C656420746F20726257726945
:101D10007465200A000000004552523A2067697A33
:101D200050726F746F636F6C48656164496E69745B
:101D3000206865616420697320656D707479200A7C
:101D4000000000004552523A2064617461206973BA
:101D500020656D707479200A00000000CD0A002013
:101D600067697A436865636B5265706F727420456A
:101D700072726F72202C20496C6C6567616C205008
:101D80006172616D0A00000076616C756550485F94
:101D9000455252204368616E6765640A0000000086
:101DA000A805002076616C756554454D5020436848
:101DB000616E6765640A000076616C756548554D13
:101DC000204368616E6765640A00000076616C7587
:101DD0006572737369204368616E6765640A000009
:101DE00076616C75655048204368616E6765640A6A
:101DF0000000000067697A44617461506F696E7415
:101E000073325265706F72744461746120457272EE
:101E10006F72202C20496C6C6567616C2050617278
:101E2000616D0A0067697A50726F746F636F6C49F5
:101E3000737375656450726F636573732045727256
:101E40006F72202C20496C6C6567616C2050617248
:101E5000616D0A005B4552525D202064617461200F
:101E60004973204E756C6C200A0000006C656E2072
:101E70003D202564202C20734469644C656E203D10
:101E8000202564202C646174615F6C656E203D20A8
:101E900025640A0075617274207772697465206523
:101EA00072726F72202564200A00000067697A52FE
:101EB00065706F727444617461204572726F722034
:101EC0002C20496C6C6567616C20506172616D0AF1
:101ED000000000001021684601F040FA8DF80F0064
:101EE00010216846FFF75FFC0446002C06DA214605
:101EF000FAA004F0DFF96FF00100C8E6102168468F
:101F0000FFF723FD2046C2E670B50546FFF72DFC1E
:101F10000446F9492846FFF73BFD012813D1F7A0F5
:101F200004F0C8F9F44917392846FFF793FD28B99A
:101F30000622F14917390420FFF79EFE1122294697
:101F4000ED4803F0E7FFF348B4FBF0F100FB11406C
:101F5000C8B9F1480068A04215D0F0A004F0AAF971
:101F6000E54917392846FFF775FD28B90622E249E9
:101F700017390420FFF780FE11222946DE4803F0BE
:101F8000C9FFE548046070BD2DE9FE4F80460E464E
:101F900017464FF0000B0020029081468246002534
:101FA00034460090B8F1000F01D006B137B9E1A076
:101FB00004F080F94FF0FF30BDE8FE8F404601F09D
:101FC0005DFD00F0FF0ABAF1000F02D14FF0FF30C3
:101FD000F2E74FF000095DE0012201A9404601F05F
:101FE00078FD8346BBF1000F52D0DE480078FF2811
:101FF0001FD19DF80400FF281BD1DB48007848B9A9
:10200000FF20207060700220D84908800120D64946
:10201000087034E0D5480088042830DDD3480088B3
:10202000A8422CD0FF20207060700220CF49088089
:1020300025E0CC480078FF2803D19DF804005528FE
:102040001DD0C9480078012819D19DF80400C7495E
:1020500009886054C5480088401CC4490880084667
:10206000008804280BDD0094009C608801F089F949
:10207000001D85B2BD480088A84200D10CE09DF843
:102080000400B8490870BA480078401CB849087084
:1020900009F10109D1459FDB00BFB448008804283D
:1020A00023DDB2480088A8421FD1B04801882046ED
:1020B00001F054F90290AD480088401E215C02985E
:1020C00081420FD12A462146304603F023FF3D804E
:1020D0000020A5490870A5490880A5490870A149B4
:1020E000087069E76FF0010066E7012064E710B54A
:1020F00000248148C23890F8420000B910BD9DA06C
:1021000004F0D8F87C48C238B0F85D104330FFF7CF
:102110004AFB04467848C238B0F85D00A04202D0BD
:102120009CA004F0C7F8FFF720FB7349C239C1F83F
:102130005F0000BFE2E770B504466F4D7F3D34B9E4
:10214000AFF2004004F0B6F84FF0FF3070BD2879D0
:10215000401C2179884204D122216748813803F04C
:10216000F2FE0020F2E73EB50446002524B98FA018
:1021700004F0A0F8681E3EBD2068009060680190E1
:102180009DF80400401CC0B28DF80400052001F049
:10219000F8F8ADF802000921684601F0DFF88DF883
:1021A000080009216846FFF7FEFA0546002D03DA0C
:1021B00029464AA004F07EF82846DCE710B54E48D0
:1021C000C23890F8420001282CD14B48C23890F810
:1021D0004100022821DAFFF7C8FA4749C239D1F88D
:1021E0005F10401AC8281DD9FFF7BFFA04464248BD
:1021F000C23890F84130D0F85F20214676A004F034
:1022000059F8FFF774FF3C48C23890F84100401C71
:102210003949C23981F8410004E022213648813829
:1022200003F091FE10BD30B59DB0044600252CB9D9
:1022300073A004F03FF8681E1DB030BD6846FFF77C
:1022400073FB02208DF8040060798DF8050078A1F9
:1022500003C9CDE9020179A103C9CDE904017AA13D
:1022600003C9CDE908017BA103C9CDE906012022FC
:102270007BA10AA803F04EFE202282A10DF152009C
:1022800003F048FE0020CDF84A00CDF84E009DF83E
:1022900051008DF851009DF8510040F002018DF879
:1022A0005110002001F06DF8ADF848006F2001F0EA
:1022B00068F8ADF802007321684601F04FF88DF818
:1022C000720073216846FFF76EFA0546002D03DAA7
:1022D000294602A003F0EEFF2846ADE74552523AE8
:1022E0002075617274207772697465206572726FEF
:1022F00072202564200A00004E0B00206368616E86
:102300006765642C207265706F72742064617461FB
:102310000A000000C0270900AC050020496E666F66
:102320003A2036303053207265706F7274206461C9
:1023300074610A0067697A50726F746F636F6C47DB
:1023400065744F6E655061636B6574204572726F82
:1023500072202C20496C6C6567616C205061726141
:102360006D0A0000B4050020B0050020B205002071
:10237000B50500205761726E696E673A2074696D09
:10238000656F75742C20726573656E64206461746A
:1023900061200A004552523A20726573656E6420CE
:1023A00064617461206572726F720A004552523A1C
:1023B0002067697A50726F746F636F6C436F6D6DD5
:1023C0006F6E41636B206461746120697320656D79
:1023D000707479200A0000005761726E696E673A66
:1023E00067697A50726F746F636F6C526573656E54
:1023F00064446174612025642025642025640A00FA
:1024000067697A50726F746F636F6C476574446567
:1024100076696365496E666F204572726F72202C13
:1024200020496C6C6567616C20506172616D0A00B7
:102430003030303030303034000000003030303058
:102440003030303200000000303330333030303044
:1024500000000000303330313031303000000000F7
:102460003332316166633562386333363436326114
:10247000383635366336636532353231336131375C
:1024800000000000386664343562643437653765AF
:10249000346532666136633461366530316263318A
:1024A0006232373000000000FEB504460E460025BB
:1024B00024B9F9A003F0FEFE681EFEBD6846FFF7D2
:1024C00033FA12208DF8040060798DF8050006209B
:1024D00000F057FFADF802008DF808600A21684649
:1024E00000F03CFF8DF809000A216846FFF75BF910
:1024F0000546002D04DA2946AFF2202003F0DAFE6B
:102500002846DAE770B5044625462CB9EDA003F05D
:10251000D1FE4FF0FF3070BDEF48A9680160E96857
:102520004160298A0181A97C8172A0F1D401B1F8AE
:10253000D40000F026FFE849D439A1F8D400D1F83E
:10254000DC0000F02BFFE449D439C1F8DC000E2197
:10255000E148D43890F8872088308154883890F842
:102560008700401CDC49D43981F8870004200870BA
:102570000020D0E710B5FFF7F8F8044600BFFFF7DA
:10258000F4F8001BB0F5167FF9D9FFF7F1F810BD8C
:1025900010B504462CB9D1A003F08CFE4FF0FF30EB
:1025A00010BD208900F0EDFE2081D8480078C0F3EE
:1025B0008000217AC1F3800188425ED0207AC0F386
:1025C000800000282DD0207A00F0010088B1002181
:1025D000C148D43890F8752076308154763890F818
:1025E0007500401CBC49D43981F87500C8A003F0BF
:1025F00061FE207AC0F3400000283ED00121B64899
:10260000D43890F8752076308154763890F875007B
:10261000401CB149D43981F87500C5A003F04AFEC9
:102620002BE0207A00F0010088B10021AA48D438BC
:1026300090F8752076308154763890F87500401CFB
:10264000A549D43981F87500B1A003F033FE207A92
:10265000C0F3400088B102219F48D43890F875201B
:1026600076308154763890F87500401C9A49D439F8
:1026700081F87500B5A003F01DFEA4480078C0F3F2
:10268000C000217AC1F3C001884230D0207AC1084D
:102690009E48007861F3C3009C490870207AC0F31B
:1026A000C00090B103218C48D43890F87520763062
:1026B0008154763890F87500401C8749D43981F8E8
:1026C0007500A9A003F0F6FD11E004218248D4387A
:1026D00090F8752076308154763890F87500401C5B
:1026E0007D49D43981F87500A7A003F0E3FD874840
:1026F0000078C0F30010217AC1F30011884230D075
:10270000207A01098148007861F304107F4908703C
:10271000207AC0F3001090B105216F48D43890F8AA
:10272000752076308154763890F87500401C6A49DF
:10273000D43981F875009CA003F0BCFD11E006219E
:102740006548D43890F8752076308154763890F802
:102750007500401C6049D43981F875009AA003F0D7
:10276000A9FD6A480078C0F34010217AC1F34011F6
:10277000884230D0207A41096448007861F34510DE
:1027800062490870207AC0F3401090B10721524886
:10279000D43890F8752076308154763890F87500EA
:1027A000401C4D49D43981F8750090A003F082FD9A
:1027B00011E008214848D43890F8752076308154CB
:1027C000763890F87500401C4349D43981F875007B
:1027D0008DA003F06FFD4D484078C0F3C001607AD2
:1027E000C0F3C000814230D0607AC10847484078C9
:1027F00061F3C30045494870607AC0F3C00090B1EE
:102800000B213548D43890F87520763081547638CD
:1028100090F87500401C3049D43981F8750082A0C9
:1028200003F048FD11E00C212B48D43890F87520B6
:1028300076308154763890F87500401C2649D4399A
:1028400081F875007FA003F035FD30484078C0F373
:102850000011607AC0F3001081421CD0607A010937
:102860002A48407861F3041028494870607AC0F320
:10287000001078B109211848D43890F875207630C6
:102880008154763890F87500401C1349D43981F88A
:102890007500E7E0EAE0F9E067697A50726F746FFB
:1028A000636F6C4572726F72436D64204572726F14
:1028B00072202C20496C6C6567616C2050617261DC
:1028C0006D0A00004552523A204E54502069732040
:1028D000656D707479200A00600B002067697A507A
:1028E000726F746F636F6C4D6F64756C6553746158
:1028F000747573204572726F72202C20496C6C6560
:1029000067616C20506172616D0A0000B60500209D
:102910004F6E426F617264696E673A20536F6674DE
:102920004150206F7220576562206D6F64650A0008
:102930004F6E426F617264696E673A204169724CF2
:10294000696E6B206D6F64650A0000004F6E426F08
:10295000617264696E673A2053746174696F6E20A6
:102960006D6F64650A0000005769466920737461E1
:102970007475733A20696E2062696E64696E6720AF
:102980006D6F64650A0000005769466920737461C1
:102990007475733A206F75742062696E64696E672E
:1029A000206D6F64650A0000576946692073746181
:1029B0007475733A20636F6E6E656374656420721C
:1029C0006F757465720A00005769466920737461F7
:1029D0007475733A20646973636F6E6E65637465B2
:1029E0006420726F757465720A0000005769466949
:1029F000207374617475733A20636F6E6E656374CF
:102A00006564206D326D0A005769466920737461F0
:102A10007475733A20646973636F6E6E6563746571
:102A200064206D326D0A0000576946692073746135
:102A30007475733A2061707020636F6E6E65637495
:102A40000A00000057694669207374617475733A0F
:102A5000206E6F2061707020636F6E6E6563740A04
:102A600000000000F9A003F025FC0FE00A21FE4859
:102A700090F8752076308154763890F87500401CB7
:102A8000F94981F87500F9A003F014FC0D21F6480E
:102A900090F8752076308154763890F87500401C97
:102AA000F14981F87500607A00F0070081F8D300E1
:102AB000084690F8D310F4A003F0FCFB0220EA498A
:102AC000087000206CE510B53420F3490860F34825
:102AD000C860084600F0B4FF18B9F1A003F0EAFBA3
:102AE00002E0F4A003F0E6FB40F22111DE4803F01F
:102AF0002AFA10BD30B587B005460024062D7DD2D8
:102B0000DFE805F003316193C1F001A8FEF70CFF87
:102B10000B208DF80800D44890F83910D0F839000F
:102B2000401CD14AC2F83900C8B28DF8090005200E
:102B300000F027FCADF80600092101A800F00EFC0A
:102B40008DF80C00092101A8FEF72DFE0446002C8B
:102B500004DA2146AFF67C0003F0ACFB092101A8A2
:102B6000FEF7F3FEF0E004A8FEF7DEFE09208DF884
:102B70001400BD4890F83910D0F83900401CBA4A0A
:102B8000C2F83900C8B28DF815008DF8185006202B
:102B900000F0F7FBADF812000A2104A800F0DEFBFC
:102BA0008DF819000A2104A8FEF7FDFD0446002C4B
:102BB00004DA2146AFF6DC0003F07CFB0A2104A80E
:102BC000FEF7C3FEC0E004A8FEF7AEFE09208DF8B4
:102BD0001400A54890F83910D0F83900401CA24ADA
:102BE000C2F83900C8B28DF815008DF818500620CB
:102BF00000F0C7FBADF812000A2100E0A0E004A835
:102C000000F0ACFB8DF819000A2104A8FEF7CBFDFB
:102C10000446002C04DA2146AFF6401003F04AFBCC
:102C20000A2104A8FEF791FE8EE001A8FEF77CFEC3
:102C300013208DF808008C4890F83910D0F839002E
:102C4000401C894AC2F83900C8B28DF80900052035
:102C500000F097FBADF80600092101A800F07EFB0B
:102C60008DF80C00092101A8FEF79DFD0446002CFB
:102C700004DA2146AFF69C1003F01CFB092101A8E1
:102C8000FEF763FE60E001A8FEF74EFE15208DF80A
:102C90000800754890F83910D0F83900401C724A85
:102CA000C2F83900C8B28DF80900052000F069FBB0
:102CB000ADF80600092101A800F050FB8DF80C00CA
:102CC000092101A8FEF76FFD0446002C04DA214615
:102CD000AFF6F81003F0EEFA092101A8FEF735FE71
:102CE00032E0FFE701A8FEF71FFE29208DF808005B
:102CF0005D4890F83910D0F83900401C5A4AC2F8A3
:102D00003900C8B28DF80900052000F03AFBADF893
:102D10000600092101A800F021FB8DF80C00092113
:102D200001A8FEF740FD0446002C04DA2146AFF668
:102D3000542003F0BFFA092101A8FEF706FE03E0C4
:102D400061A003F0B7FA00BF00BF204607B030BD56
:102D50003EB500246846FEF7E7FD17208DF8040015
:102D6000414890F83910D0F83900401C3E4AC2F86A
:102D70003900C8B28DF80500052000F002FBADF85F
:102D800002000921684600F0E9FA8DF808000921DF
:102D90006846FEF708FD0446002C03DA214650A0E1
:102DA00003F088FA09216846FEF7CFFD3EBD3EB527
:102DB00000246846FEF7B8FD21208DF804002A485B
:102DC00090F83910D0F83900401C274AC2F8390071
:102DD000C8B28DF8050000208DF80800062000F02C
:102DE000D0FAADF802000A21684600F0B7FA8DF873
:102DF00009000A216846FEF7D6FC0446002C03DAD7
:102E0000214637A003F056FA0A216846FEF79DFDD9
:102E10003EBD70B5044625462CB939A003F04AFAE8
:102E20004FF0FF3070BD412205F108010E48E0303F
:102E300003F070F80F210C4890F899209A308154D3
:102E40009A3890F89900401C074961E05769466933
:102E5000207374617475733A20696E20746573749D
:102E6000206D6F64650A00008C0A0020576946696E
:102E7000207374617475733A206F75742074657370
:102E800074206D6F64650A005253534920697320A2
:102E90002564200A00000000AD0B0020BD0B0020BF
:102EA0007262437265617465205375636365737301
:102EB000200A000072624372656174652046616990
:102EC0006C64200A000000004552523A20436667B5
:102ED0004D6F6465206572726F72210A00000000F8
:102EE0004552525B4E54505D3A20756172742077A2
:102EF00072697465206572726F72202564200A0001
:102F00004E545020697320656D707479200A00005A
:102F100081F8990005200870002083E72DE9F0472B
:102F200090B0064600270025002002900190002462
:102F30008146804636B9BAA003F0BCF9601E10B0D5
:102F4000BDE8F087FFF73AF902AABF49BF48FFF78B
:102F50001BF80746002F71D1BDA003F0ABF9FEF7B7
:102F600004FC8246BDF808205146BEA003F0A2F939
:102F7000002506E0B448415DBFA003F09BF9681C42
:102F800085B2BDF808008542F4DBAFF2446003F07F
:102F900091F9AD4C20790F2851D00ADC0E2874D25B
:102FA000DFE800F07316731A737344397373457353
:102FB000463D182854D006DC112849D0142848D0A2
:102FC000162862D135E0222854D02A285DD131E07C
:102FD0002046FFF728F960E0E279A179A8A003F084
:102FE00069F901A8009008F10900BDF808301A1A23
:102FF0009548083000EB080103AB4846FEF764FD36
:1030000040B9E37903A92046019AFEF7C2FDA0A0CA
:1030100003F050F941E02046FFF7A5F83DE02046D7
:10302000FFF7A1F82046FFF7B3FA36E000BF00BF74
:1030300000BF00BF2046FFF77EF82EE02EE02046BE
:10304000FFF791F895A003F035F9FFF793FA24E024
:1030500023E02046FFF76FF895A003F02BF91CE062
:103060002046FFF768F82046FFF74CFA98A003F0D7
:1030700021F912E02046FFF75EF82046FFF7C9FE6F
:1030800099A003F017F908E0FFE702212046FFF7B7
:103090000BFA9CA003F00EF900BF0DE017F1020F30
:1030A0000AD1694C01212046FFF7FEF99BA003F0ED
:1030B00001F96FF0010042E76348401E00780628DE
:1030C00050D2DFE800F04F0313232F3F00205E496A
:1030D000491E08701122B131A1F14E00FEF7DCFA51
:1030E00012215948623002F02EFF3CE00020564980
:1030F000491E08700122D331A1F15E00FEF7CCFA1F
:1031000012215148743002F01EFF2CE000204E497D
:10311000491E08700846D0F835201B316330FEF791
:10312000BBFA20E000204849491E08700C22D43127
:10313000A1F14D00FEF7B0FA12214348863002F0AB
:1031400002FF10E000204049491E08704122E03192
:10315000A1F14700FEF7A0FA41213B48983002F068
:10316000F2FE00E000BF00BF3046FEF7CDFE0020BB
:10317000E5E62DE9F04188B006460F464FF000081D
:1031800001ACB81D85B23EB96AA003F093F84FF0C8
:10319000FF3008B0BDE8F081FF2004F8010B04F80F
:1031A000010B281204F8010B04F8015B052004F858
:1031B000010B2548401E90F83910D0F83900401C0A
:1031C000214A521EC2F8390004F8011B002004F8FD
:1031D000010B04F8010B062004F8010B3A463146B6
:1031E0000DF10D0002F096FE291D01A800F0B6F8C1
:1031F0000146E81C01AA1154291D01A8FEF7D3FAC3
:103200008046B8F1000F04DA4146AFF6307003F0A3
:1032100051F8291D01A8FEF798FB0020B9E700002E
:1032200047697A7769747348616E646C652045728A
:10323000726F72202C20496C6C6567616C20506144
:1032400072616D0A000000008D0A0020AD0B0020A5
:10325000476574204F6E65205061636B6574210A69
:103260000000000057694669324D43555B253464C0
:103270003A2534645D3A2000253032782000000081
:10328000666C6167202578202578200A0000000000
:1032900041636B44617461203A200A007265706F6B
:1032A00072743A4D4355207265626F6F74210A0043
:1032B00041636B2050524F44554354494F4E5F4D2C
:1032C0004F44452073756363657373200A000000E3
:1032D00041636B204745545F5554542073756363B5
:1032E000657373200A00000041636B204745545FFB
:1032F0004D6F64756C652073756363657373200A25
:10330000000000004552523A20636D6420636F64F0
:1033100065206572726F72210A0000004552523AB0
:1033200020636865636B2073756D206572726F72C0
:10333000210A00005B4552525D2067697A77697403
:1033400073506173737468726F75676844617461F8
:10335000204572726F72200A0000000010B502460C
:103360000024002302B109B9002010BD022303E0AC
:10337000D05C2044C4B25B1C481E9842F8D820465A
:10338000F3E701B581B000200090694601AA5078AA
:10339000087010784870BDF800000CBD01460806A2
:1033A00001F47F4240EA022001F47F0240EA122049
:1033B00040EA1160704710B5024600230024302A0D
:1033C00005DB392A03DCA2F13000C3B20EE0412A4A
:1033D00005DB462A03DCA2F13700C3B206E0612A0E
:1033E00004DB662A02DCA2F15700C3B2302905DBF8
:1033F000392903DCA1F13000C4B20EE0412905DB1C
:10340000462903DCA1F13700C4B206E0612904DBE0
:10341000662902DCA1F15700C4B204EB0310C0B26C
:1034200010BD70B5044600250026204602F096FD2A
:1034300006460CB9681E70BD002505E0605D3028A9
:1034400001D00020F7E76D1CB542F7D30120F2E769
:103450002DE9F043034600BF002500240026002785
:10346000012901D002290DD1A3F1010C4FF064080C
:10347000BCFBF8F4BCFBF8F908FB19C501F10C061C
:10348000174609E04FF0640CB3FBFCF4B3FBFCF807
:103490000CFB18350E46174606F1010C4FF01A08C2
:1034A0000CFB08FC4FF00A08BCFBF8FC05EB950888
:1034B00008EB94084FF0020909FB1488C444BC448B
:1034C000ACF10100002806DB4FF0070C90FBFCF884
:1034D0000CFB180C07E04FF0070C90FBFCF80CFB02
:1034E000180C0CF1070C6046BDE8F08301460A4653
:1034F000C81701EB90708010A1EB800070B96420B8
:1035000091FBF0F300FB131030B94FF4C87091FB3E
:10351000F0F300FB131008B9012070470020FCE70E
:1035200010B504462046FFF7E1FF10B14FF4B77025
:1035300010BD40F26D10FBE72DE9F04190B08046E0
:103540000E4640F2B2753022684901A802F0E2FC52
:10355000344604F5E14400BF11E02846FFF7E0FFE0
:10356000074640F2A3207843B4EBC01F06D340F2D5
:10357000A3207843A4EBC0146D1C00E001E0002CF4
:10358000EBD100BFA8B2ADF83400002518E0BDF8BB
:103590003400FFF7ABFF08B11D20029001A850F8DE
:1035A000250040F2A3214843B4EBC01F07D301A874
:1035B00050F825004843A4EBC0146D1C00E001E066
:1035C000002CE4D100BF1C200290681CC0B28DF812
:1035D0003600012506E04648844202D3241A6D1CB9
:1035E00000E001E0002CF6D100BFE8B28DF8370012
:1035F0004FF46160B4FBF0F0C0B28DF838004FF4C6
:103600006160B4FBF0F100FB11403C21B0FBF1F034
:10361000C0B28DF839003C20B4FBF0F100FB114042
:103620008DF83A00CDF83B600D98C8F800000E9870
:10363000C8F80400BDF83C00A8F808009DF83E005A
:1036400088F80A0010B0BDE8F0812DE9F05F8046EF
:103650000E46914600241CE016F814A06000401CA1
:1036600016F800B0504602F04FFC3038C5B2092DB4
:1036700001DDE81FC5B2584602F046FC3038C7B23B
:10368000092F01DDF81FC7B207EB051008F8040089
:10369000641C4C45E0DBBDE8F09FF0B5034600201C
:1036A0001EE00E5CF71706EB17773F1107F13005A8
:1036B0000E5CF71706EB17773F11A6EB07173037AD
:1036C000FCB2392D01DDEE1DF5B2392C01DDE61D10
:1036D000F4B203F81050012606EB40069C55401C3E
:1036E0009042DEDB002603F81260F0BD5087000830
:1036F0008051010030B502460B4600210024002510
:103700000AB9481E30BD002108E0545C581A401E1A
:10371000155C5554581A401E1454491CB1EB530FF4
:10372000F3D30020EEE710B503460020541AB4FB93
:10373000F3F010BD10B50346002002FB031010BDCE
:103740002DE9F04704460E46154600273146284627
:1037500002F05DFC8146214602F091FC804602F0B9
:10376000D1FC07463846BDE8F0872DE9F04704460E
:103770000E4615460027284602F0BFFC814621462A
:1037800002F04BFC8046314602F0EFFB074638461C
:10379000BDE8F087024612B102F0070028B90829F7
:1037A00001D8002070470120FCE702F00700C0F1BB
:1037B0000800884201D30020F4E70120F2E72DE958
:1037C000F0470546884614461E464FF00009CA4693
:1037D0000027002314B9581EBDE8F087EB084146C6
:1037E0002846FFF7D7FF07463FB9E05C05F0070121
:1037F00006FA01F10843E0541DE0012F1BD1F0B29D
:1038000005F00701C1F1080140FA01F905F00700D0
:10381000C0F10801FF20084100EA060A581C205C9C
:1038200040EA0900591C6054E05C05F007010AFAFF
:1038300001F10843E0540020CEE72DE9F04F8FB0AE
:1038400004460F4690461D460026B246B146B34692
:1038500000200E90B8F1000F00D025B94FF0FF30D6
:103860000FB0BDE8F08F4FEAD4092A46414601A8BF
:1038700002F050FB012D09D9294601A8FFF73AFFB4
:10388000B0F1FF3F02D14FF0FF30E9E73946204663
:10389000FFF780FF8246BAF1000F0CD101A810F8A3
:1038A000090004F007010841C7F10802FF21114196
:1038B0000840064321E0BAF1010F1ED101A909F128
:1038C0000100085C04F00701C1F10801791AC1F197
:1038D0000802FF21114100EA010B01A810F80900BC
:1038E00004F0070108410E9004F00700C0F1080140
:1038F0000BFA01F006430E9806433046B0E72DE977
:10390000F04F8FB005460C4616469946189F4FF06B
:10391000000AD34600200E908046B9F1000F00D077
:1039200027B94FF0FF300FB0BDE8F08F3A46494657
:1039300001A802F0EFFA012F09D9394601A8FFF7D3
:10394000D9FEB0F1FF3F02D14FF0FF30EBE7314637
:103950002046FFF71FFF8246BAF1000F0CD101A8E5
:10396000405D04F007010841C6F10802FF21114142
:10397000084040EA080821E0BAF1010F1ED101A970
:10398000681C085C04F00701C1F10801711AC1F15B
:103990000802FF21114100EA010B01A8405D04F07B
:1039A000070108410E9004F00700C0F108010BFA6E
:1039B00001F040EA08080E9848EA00084046B2E7DD
:1039C0002DE9F04704460D461746089E4FF00009C2
:1039D000CA46C8461BB94FF0FF30BDE8F0873946EC
:1039E0002846FFF7D7FE8046B8F1000F07D1185DD3
:1039F00005F0070106FA01F1084318551EE0B8F179
:103A0000010F1BD1F0B205F00701C1F1080140FA26
:103A100001F905F00700C0F10801FF20084100EAA4
:103A2000060A601C185C40EA0900611C5854185DC5
:103A300005F007010AFA01F1084318550020CCE708
:103A4000014611B94FF0FF307047C8684860C86838
:103A500088600020F8E7014611B94FF0FF30704749
:103A60000020C86048608860086000BFF7E7014632
:103A700011B94FF0FF3070470868FCE700B5024607
:103A800012B94FF0FF3000BD50689168884201D1F3
:103A90000020F8E750689168884203D29068516826
:103AA000401AF0E71046FFF7E2FF51689368C91A21
:103AB000401AE8E730B5044614B94FF0FF3030BD86
:103AC0002046FFF7D4FF05462046FFF7D7FF281A08
:103AD000F5E72DE9F04104460F461646002514B9D6
:103AE000681EBDE8F08117B94FF0FF30F9E7606854
:103AF000A168884214D22046FFF7C0FFB04201D926
:103B0000304602E02046FFF7B9FF054661682A46C5
:103B1000384602F0FFF96068284460602846E0E714
:103B20002046FFF7A4FF6168E268891A401AB04294
:103B30000AD9354661682A46384602F0EBF96068D2
:103B4000284460602846CCE72046FFF790FF616874
:103B5000E268891A451A61682A46384602F0DAF99D
:103B6000E0686060721B79192046FFF7B2FF0544D8
:103B70002846B6E72DE9F04104460F4615460026D3
:103B800004B11FB94FF0FF30BDE8F0812046FFF7C8
:103B900091FFA84202D86FF00100F5E76068A168C4
:103BA00088422AD82046FFF762FFA168E268891A96
:103BB000461AB54213D8A0682A46394602F0AAF937
:103BC000A0682844A0602046FFF751FFE168084440
:103BD000A168884201D1E068A0602846D4E7A068C7
:103BE0003246394602F096F9E068A060AA1BB9197E
:103BF0002046FFF7BFFF3044C6E7A0682A46394693
:103C000002F088F9A0682844A0602846BCE70000BC
:103C100010B56FF0040000F062F92E4800682E49DC
:103C2000B0FBF1F02D4908700846007800EB400128
:103C3000C1EBC0104FF6FF7101EAC00028490880AF
:103C400010BD0146254A12784A434FF0E0235A61DD
:103C500000229A611A46126942F001021A6100BFFD
:103C60004FF0E022106900F001021AB100F4803236
:103C7000002AF5D04FF0E022126922F001024FF045
:103C8000E0231A6100229A6170470146144A1288A3
:103C90004A434FF0E0235A6100229A611A461269A2
:103CA00042F001021A6100BF4FF0E022106900F0FB
:103CB00001021AB100F48032002AF5D04FF0E02260
:103CC000126922F001024FF0E0231A6100229A618A
:103CD000704700000400002000127A00B8050020A0
:103CE000BA05002000BF704700BF514A128802F099
:103CF0004002002AF9D0C2B24D4B1B1D1A807047FA
:103D000010B586B00446012144F2040000F074FFAF
:103D10004FF40070ADF8140003208DF81600182041
:103D20008DF8170005A9434800F0AAFC4FF4806005
:103D3000ADF8140004208DF8170005A93D4800F0E7
:103D40009FFC25208DF8000003208DF801008DF8E0
:103D5000020001208DF80300684600F076F8019417
:103D60000020ADF80800ADF80A00ADF80C00ADF881
:103D700010000C20ADF80E0001A92D4801F0F1FE55
:103D8000012240F225512A4801F083FF01212848F1
:103D900001F073FF06B010BD10B540F22551244864
:103DA00002F05CF810B3224801F0D8FFC4B22248F8
:103DB000008800F40040C8B91F48008800F4804023
:103DC00060B10A2C03D000201B49088020E01A486B
:103DD000008840F400401849088019E00D2C06D1F5
:103DE0001548008840F480401349088010E01248CC
:103DF0000088C0F30D0011490C540F480088401C86
:103E00000D49088008460088C72801DD0020088089
:103E100010BD10B504462146054801F09BFF00BFC8
:103E20000348008800F040000028F9D010BD0000D1
:103E30000038014000080140C0050020F10B0020BF
:103E400031490143314A1160704770B500210023A8
:103E50000F22C47804B32D4C246804F4E064C4F544
:103E6000E064210AC1F10403CA40447804FA03F172
:103E70008478144021430901254C0678A155047823
:103E800004F01F050124AC4005786D11AD0005F16B
:103E9000E025C5F8004109E0047804F01F0501247D
:103EA000AC401C4D0678761145F8264070BD1A4A84
:103EB0000A400243154B1B1F1A60704739B1134A61
:103EC000121D12680243114B1B1D1A6006E00F4AB7
:103ED000121D126882430D4B1B1D1A607047042887
:103EE00008D14FF0E021096941F004014FF0E022D0
:103EF000116107E04FF0E021096921F004014FF062
:103F0000E0221161704700000000FA050CED00E0AE
:103F100000E400E080E100E080FFFF1F10B50446F0
:103F2000FA48844208D10121401500F07FFE0021AB
:103F3000601500F07BFE17E0F548844208D10121AE
:103F4000001500F073FE0021201500F06FFE0BE05D
:103F5000F048844208D10121C80300F067FE002127
:103F60004FF4004000F062FE10BD30B50246002064
:103F700000235068E84C20400D790C6844EA052481
:103F8000204350609068E54C2040D1E902542C4316
:103F90004D7944EA450420439060D06A20F47000D3
:103FA0000C7C641EE4B2234340EA0350D06230BD6F
:103FB00000210160017141718160C16001210174C2
:103FC000704721B1826842F00102826003E082689A
:103FD00022F001028260704721B1826842F480724F
:103FE000826003E0826822F480728260704710B5BC
:103FF0000023CBB21AB144681C43446002E0446819
:104000009C43446010BD816841F0080181607047A5
:10401000014600208A6802F008020AB1012000E08F
:1040200000207047816841F00401816070470146BB
:1040300000208A6802F004020AB1012000E000209A
:10404000704721B1826842F4A002826003E0826876
:1040500022F4A00282607047014600208A6802F4C0
:1040600080020AB1012000E00020704710B50A4626
:1040700000210023416821F46041531E41EA43318D
:10408000416010BD21B1426842F40062426003E029
:10409000426822F4006242607047F0B504460D4663
:1040A00000200021092D11DDE068A5F10A0606EBCC
:1040B0004607072606FA07F18843A5F10A0606EB2C
:1040C000460603FA06F10843E0600CE0206905EBC0
:1040D0004507072606FA07F1884305EB450603FA6C
:1040E00006F108432061072A0FDA606B561E06EBC3
:1040F00086071F2606FA07F18843561E06EB86063A
:1041000005FA06F10843606322E00D2A0FDA206BFE
:10411000D61F06EB86071F2606FA07F18843D61F2F
:1041200006EB860605FA06F10843206310E0E06A14
:10413000A2F10D0606EB86071F2606FA07F1884353
:10414000A2F10D0606EB860605FA06F10843E062C9
:10415000F0BD21B1826842F48012826003E082687F
:1041600022F48012826070470146C86C80B27047AA
:1041700066484C300068704721B1426842F4806262
:10418000426003E0426822F480624260704721B1DD
:10419000426842F48052426003E0426822F4805256
:1041A000426070470A460021816821F4E0411143D2
:1041B0008160704721B1826842F40042826003E06E
:1041C000826822F400428260704721B1826842F422
:1041D0000212826003E0826822F402128260704759
:1041E000014600208A6802F400120AB1012000E0B2
:1041F00000207047F0B50446154600200022002636
:10420000092911DDE068A1F10A0707EB470C072730
:1042100007FA0CF29043A1F10A0707EB470703FAEC
:1042200007F21043E0600CE0206901EB410C072726
:1042300007FA0CF2904301EB410703FA07F210432F
:104240002061A06BC0F30156EF1C06F1010CA7EB37
:104250000C0707EB870C1F2707FA0CF29043EF1CA3
:1042600006F1010CA7EB0C0707EB870701FA07F231
:104270001043A063F0BD10B50A4600210023816BF6
:1042800021F44011531E41EA0351816310BD08B56A
:10429000002300930090009B0B440093009B1A6046
:1042A00008BD08B5024600200090009201F12800E8
:1042B000009B184400900098006880B208BD0A4630
:1042C00000214168164B194011434160704741621B
:1042D000826270470A460021416821F01F011143A4
:1042E0004160704740B109490831096841F4000153
:1042F000064A0832116007E004490831096821F4D0
:104300000001024A08321160704700000024014099
:1043100000280140003C0140FFFEF0FFFDF7F1FFE7
:10432000FFFD3FFF0246002013680B400BB1012048
:1043300000E000207047CA430260704770B5024633
:104340000020002300240B125568CEB205EA0604B3
:1043500015681D4015B10CB1012000E0002070BDB2
:1043600000220A12D34303607047000001684FF631
:10437000FE72114001600021016041608160C160F6
:104380008D49884208D18C490839496841F00F01AC
:10439000894A083A51608AE087491431884208D135
:1043A00085490839496841F0F001834A083A51606B
:1043B0007DE081492831884208D17F490839496820
:1043C00041F470617C4A083A516070E07A493C31AE
:1043D000884208D178490839496841F47041764AE1
:1043E000083A516063E074495031884208D17249FB
:1043F0000839496841F470216F4A083A516056E023
:104400006D496431884208D16B490839496841F4E3
:104410007001694A083A516049E067497831884239
:1044200008D165490839496841F07061624A083A23
:1044300051603CE06149884206D1011F096841F0A2
:104440000F01021F116032E05C491431884208D12B
:104450005A49091F096841F0F001584A121F1160BA
:1044600025E056492831884208D15449091F096876
:1044700041F47061514A121F116018E04F493C31FC
:10448000884208D14D49091F096841F470414B4ADF
:10449000121F11600BE049495031884207D147494A
:1044A000091F096841F47021444A121F11607047C6
:1044B00010B50022026847F6F0739A430C6A8B68C5
:1044C00023430C6923434C6923438C692343CC6900
:1044D00023434C6A23438C6A23431A430260CB680C
:1044E00043600B6883604B68C36010BD00210160AE
:1044F00041608160C160016141618161C1610162AE
:1045000041628162704721B1026842F0010202609B
:1045100004E002684FF6FE731A40026070471AB159
:1045200003680B43036002E003688B43036070473A
:10453000416070470146486880B2704701460020DC
:10454000002201F080531BB11C4B083B1A6802E0AB
:10455000194B083B1A6802EA01030BB1012000E085
:104560000020704700F0805119B11449091F0860FC
:1045700002E01149083948607047014600200022D6
:1045800001F080531BB10D4B083B1A6802E00A4B47
:10459000083B1A6802EA01030BB1012000E0002089
:1045A000704700F0805119B10449091F086002E00A
:1045B0000149083948607047080002400804024079
:1045C00010B50446CC48844208D10121042000F0F3
:1045D0002DFB0021042000F029FB46E0C74884425F
:1045E00008D10121082000F021FB0021082000F063
:1045F0001DFB3AE0C248844208D10121102000F09E
:1046000015FB0021102000F011FB2EE0BD48844274
:1046100008D10121202000F009FB0021202000F01A
:1046200005FB22E0B848844208D10121402000F077
:10463000FDFA0021402000F0F9FA16E0B348844268
:1046400008D10121802000F0F1FA0021802000F043
:10465000EDFA0AE0AE48844207D10121801500F04E
:10466000E5FA0021A01500F0E1FA10BD10B5012116
:10467000084600F0DBFA0021012000F0D7FA10BD57
:104680002DE9F041024600250026002000230024E9
:10469000002791F803C00CF00F0591F803C00CF04F
:1046A000100CBCF1000F03D091F802C04CEA0505D4
:1046B00091F800C0BCF1000F31D0146800202BE04D
:1046C0004FF0010C0CFA00F3B1F800C00CEA03063D
:1046D0009E4220D183004FF00F0C0CFA03F7BC432D
:1046E00005FA03FC4CEA040491F803C0BCF1280F5E
:1046F00006D14FF0010C0CFA00FCC2F814C00AE01D
:1047000091F803C0BCF1480F05D14FF0010C0CFA31
:1047100000FCC2F810C0401C0828D1D31460B1F8C6
:1047200000C0BCF1FF0F34DD546800202EE000F122
:10473000080C4FF0010808FA0CF3B1F800C00CEABD
:1047400003069E4221D183004FF00F0C0CFA03F7B1
:10475000BC4305FA03FC4CEA040491F803C0BCF125
:10476000280F05D100F1080C08FA0CF8C2F81480E3
:1047700091F803C0BCF1480F07D100F1080C4FF0CD
:10478000010808FA0CF8C2F81080401C0828CED3A3
:104790005460BDE8F0814FF6FF7101800221817005
:1047A0000421C17070470246002093680B400BB192
:1047B000012000E0002070470146886880B2704701
:1047C00002460020D3680B400BB1012000E000201E
:1047D00070470146C86880B2704701617047416107
:1047E00070470AB1016100E041617047C1607047E4
:1047F0004FF480320A4382618161826182698269F9
:10480000704702460020434B18684FF680731840EB
:1048100040EA021008433F4B186070473E49C861A8
:104820007047F0B50A46002300240021002500F05F
:104830000046B6F1004F02D1364EF16901E0354E27
:104840007168C0F3034583B200F44016B6F5401F0B
:1048500008D121F070612F4E766826F070662D4FDA
:104860007E6012E000F48016B6F5801F06D10326A4
:1048700006FA05F4A14341F0706106E0460D3601E9
:1048800003FA06F6B14341F0706122B1460D3601DC
:1048900003FA06F6314300F00046B6F1004F02D1AC
:1048A0001C4EF16101E01B4E7160F0BD30B500227D
:1048B0008B071C0F0F2303FA04F2164B08338C10DE
:1048C00053F824309343134C08348D1044F82530AA
:1048D00023468C1053F824308C07240F00FA04F47C
:1048E00023430C4C08348D1044F8253030BD0A4960
:1048F000DC3108607047000000080140000C0140F6
:10490000001001400014014000180140001C01404B
:10491000002001400000014000002042DF48006804
:1049200040F00100DD49086008464068DC49084065
:10493000DA49486008460068DA490840D749086003
:104940000846006820F4802008600846406820F48B
:10495000FE0048604FF41F0088607047CF49096827
:1049600021F48031CD4A11601146096821F480217B
:104970001160B0F5803F03D0B0F5802F0ED106E076
:10498000C649096841F48031C44A116007E0C3494F
:10499000096841F4A021C14A116000E000BF00BFD6
:1049A000704710B501460022002300204A11012A59
:1049B00002D1BA4C236806E0022A02D1B74C236A1E
:1049C00001E0B64C636A01F01F02012494401C40D0
:1049D0000CB1012000E0002010BD38B5002000908F
:1049E0000024002500BF3120FFF7DBFF05460098BB
:1049F000401C00900098B0F5A06F01D0002DF2D0BF
:104A00003120FFF7CEFF08B1012400E0002420464A
:104A100038BD01460020A14A106820F0F80040EAA5
:104A2000C10010607047A04908607047024600202E
:104A30009A4B586820F47C1042EA01031843974BC4
:104A40005860704798490866704701460020934AAD
:104A5000506820F003000843506070478F4840685A
:104A600000F00C007047014600208C4A506820F08E
:104A7000F00008435060704701460020874A5068A4
:104A800020F4E06008435060704701460020834AEC
:104A9000506820F4605040EAC1005060704729B16E
:104AA0007E4A527A02437D4B5A7204E07B4A527A24
:104AB00082437A4B5A7270477B49D83108607047FD
:104AC00001460020754A506820F440400843506079
:104AD00070470021714A20321170704A82F820100C
:104AE000012802D004280AD104E001216B4A2032B7
:104AF000117005E00521694A2032117000E000BF05
:104B000000BF70476949086070476449096A0143FA
:104B1000624A11627047654944390860704730B590
:104B200000210022002400235C4D6D6805F00C017B
:104B300021B1042905D0082923D105E05C4D056089
:104B400022E05B4D05601FE0544D6D6805F4701266
:104B5000524D6D6805F48034022505EB92421CB974
:104B6000544D554305600BE04C4D6D6805F4003520
:104B70001DB1504D5543056002E04D4D5543056054
:104B800002E04B4D056000BF00BF444D6D6805F06D
:104B9000F0010909484D6B5C0568DD4045603F4DFB
:104BA0006D6805F4E061090A434D6B5C4568DD40C2
:104BB00085603A4D6D6805F46051C90A3E4D6B5CE5
:104BC0004568DD40C560354D6D6805F44041890B91
:104BD0003A4D6B5CC568B5FBF3F5056130BD29B195
:104BE0002E4A526902432D4B5A6104E02B4A526906
:104BF00082432A4B5A61704729B1284A926902437D
:104C0000264B9A6104E0254A92698243234B9A61BC
:104C1000704729B1214AD2690243204BDA6104E08E
:104C20001E4AD26982431D4BDA61704729B11B4A83
:104C3000D2680243194BDA6004E0184AD268824312
:104C4000164BDA60704729B1144A12690243134BBC
:104C50001A6104E0114A12698243104B1A617047CD
:104C600012494039086070470F49C86470470B49C2
:104C7000C87170470948406A40F08070074948622F
:104C8000704701460020054A92680A400AB1012097
:104C900000E0002070470149887270470010024010
:104CA0000000FFF8FFFFF6FE00004242800442428F
:104CB00000127A0000093D00C2050020D205002044
:104CC00010B50446FE48844208D10121C014FFF704
:104CD000ADFF0021E014FFF7A9FFC4E0B4F1804F5D
:104CE00008D101210846FFF7AEFF00210120FFF7A0
:104CF000AAFFB8E0F348844208D101210220FFF75F
:104D0000A2FF00210220FFF79EFFACE0EE488442A4
:104D100008D101210420FFF796FF00210420FFF7AE
:104D200092FFA0E0E948844208D101210820FFF762
:104D30008AFF00210820FFF786FF94E0E4488442C0
:104D400008D101211020FFF77EFF00211020FFF77E
:104D50007AFF88E0DF48844208D101212020FFF754
:104D600072FF00212020FFF76EFF7CE0DA488442CA
:104D700008D101214014FFF759FF00216014FFF70B
:104D800055FF70E0D548844209D10121C804FFF7DE
:104D90004DFF00214FF40020FFF748FF63E0D048AB
:104DA000844209D101210805FFF740FF00214FF49B
:104DB0008010FFF73BFF56E0CA48844209D1012129
:104DC0004805FFF733FF00214FF40010FFF72EFFD7
:104DD00049E0C548844208D101214020FFF733FF54
:104DE00000214020FFF72FFF3DE0C048844208D15A
:104DF00001218020FFF727FF00218020FFF723FFFC
:104E000031E0BB48844208D101218015FFF71BFF28
:104E10000021A015FFF717FF25E0B648844209D10D
:104E200001210804FFF702FF00214FF48030FFF753
:104E3000FDFE18E0B048844209D101214804FFF783
:104E4000F5FE00214FF40030FFF7F0FE0BE0AB4819
:104E5000844208D101218804FFF7E8FE00214FF4C5
:104E60008020FFF7E3FE10BD00220288944B984299
:104E70000ED0994B98420BD0B0F1804F08D0914B97
:104E8000984205D0904B984202D0904B984204D162
:104E90004FF68F731A404B881A438D4B984207D0B8
:104EA0008C4B984204D04FF6FF431A40CB881A43EC
:104EB00002808B8883850B880385814B98420BD0B9
:104EC000854B984208D08B4B984205D08A4B98422C
:104ED00002D08A4B984201D10B7A03860123838248
:104EE000704770B5002400220023058C4FF6FE7633
:104EF00035400584028C8388048B4FF68F752C40D7
:104F0000B51E2C400D882C43751E2A400D892A435E
:104F10004D882A436A4DA8420BD06F4DA84208D055
:104F2000744DA84205D0744DA84202D0734DA842DA
:104F300013D14FF6F7752A404D892A434FF6FB757A
:104F40002A408D882A434FF6FF652B404FF6FF55C8
:104F50002B408D892B43CD892B4383800483CD88BF
:104F60008586028470BD70B5002400220023058C64
:104F70004FF6EF7635400584028C8388048B48F623
:104F8000FF752C404FF6FF452C400D884FF6FF76FD
:104F900006EA05252C434FF6DF752A400D8906EAFF
:104FA00005152A434D8806EA05152A43444DA842B3
:104FB00002D0494DA8421DD14FF67F752A404D8938
:104FC0004FF6FF7606EA05152A434FF6BF752A40CD
:104FD0008D8806EA05152A434FF6FF352B404FF220
:104FE000FF752B408D8906EA85052B43CD8906EA9E
:104FF00085052B4383800483CD880587028470BD9B
:1050000070B5002400220023058C4FF6FF66354062
:105010000584028C8388848B4FF68F752C404FF665
:10502000FC752C400D882C434FF6FF552A400D8906
:105030004FF6FF7606EA05252A434D8806EA052540
:105040002A431F4DA84202D0234DA8421DD14FF242
:10505000FF752A404D894FF6FF7606EA05252A435B
:105060004FF6FF352A408D8806EA05252A434EF67D
:10507000FF752B404DF6FF752B408D8906EA05150F
:105080002B43CD8906EA05152B4383808483CD8885
:105090008587028470BD70B5002200230024058C32
:1050A0004EF6FF7635400584038C8488828B48F663
:1050B000FF752A404FF6FF452A400D8820E000008A
:1050C000002C01400004004000080040000C00409B
:1050D000001000400014004000340140004C01402A
:1050E000005001400054014000180040001C0040E6
:1050F00000200040004001400044014000480140C1
:105100004FF6FF7606EA05252A434DF6FF752B403C
:105110000D8906EA05352B434D8806EA05352B43F4
:10512000FA4DA84202D0FA4DA84208D14BF6FF75BD
:105130002C408D894FF6FF7606EA85152C43848036
:105140008283CD88A0F84050038470BD828B4FF2DB
:10515000FF331A408283828B4FF6FF7303EA0123E9
:105160001A4382837047F0B50C4615460022002191
:105170000026078C4EF6FF7C07EA0C070784828B1B
:10518000018C4FF6FF7707EA043640F6FF473A40B6
:105190004FF6FF7707EA05273A434FF6FF7707EA0E
:1051A00003373A43D94FB8420ED0D94FB8420BD04B
:1051B000B0F1804F08D0D74FB84205D0D64FB84293
:1051C00002D0D64FB84206D14DF6FF77394046F4AB
:1051D0008057394305E047F6FF57394044F480577C
:1051E000394382830184F0BD828B4FF6F3731A40FA
:1051F0008283828B0A4382837047F0B50C46154642
:10520000002200210026078C4FF6FF6C07EA0C07EE
:105210000784828B018C4FF6FF7707EA04264FF64E
:105220000C773A404FF6FF7707EA03172F433A43CC
:10523000B64FB8420ED0B64FB8420BD0B0F1804F47
:1052400008D0B44FB84205D0B34FB84202D0B34FE4
:10525000B84206D14FF6FF57394046F480773943BC
:1052600005E04FF2FF57394044F480773943828399
:105270000184F0BD028B4FF2FF331A400283028B90
:105280004FF6FF7303EA01231A4302837047F0B518
:105290000C461546002200210026078C4FF6EF7CB5
:1052A00007EA0C070784028B018C4FF6FF7707EAA9
:1052B000041640F6FF473A404FF6FF7707EA0337F8
:1052C0003A434FF6FF7707EA05273A438F4FB84234
:1052D0000ED08F4FB8420BD0B0F1804F08D08D4F19
:1052E000B84205D08C4FB84202D08C4FB84206D19C
:1052F0004FF6DF77394046F01007394305E04FF6A7
:105300005F77394044F01007394302830184F0BDD0
:10531000028B4FF6F3731A400283028B0A43028317
:105320007047F0B50C46154600220021068C4FF65A
:10533000FE773E400684028B018C4FF60C7632409D
:105340007E1C06EA03162E433243704EB0420ED046
:105350006F4EB0420BD0B0F1804F08D06D4EB042CE
:1053600005D06D4EB04202D06C4EB04206D14FF621
:10537000FD76314044F00106314305E04FF6F57605
:10538000314044F00106314302830184F0BD70B521
:1053900005460C465D4885420ED05D4885420BD0DF
:1053A000B5F1804F08D05B48854205D05A48854208
:1053B00002D05A48854200D100E000BF208850B991
:1053C0002389A28861882846FFF7ABFFE188284639
:1053D000FFF79EFF25E0208804280AD12389A288B0
:1053E00061882846FFF753FFE1882846FFF742FF10
:1053F00017E0208808280AD12389A28861882846D6
:10540000FFF7FBFEE1882846FFF7EEFE09E023895F
:10541000A28861882846FFF7A6FEE1882846FFF7A4
:1054200095FE70BD2DE9F04105460C46002601278A
:10543000608808B9022600E00026A088012801D172
:10544000022700E001272088A0B92389A28861886B
:105450002846FFF766FFE1882846FFF759FF2389B2
:105460003A4631462846FFF712FFE1882846FFF703
:1054700001FF13E02389A28861882846FFF707FF10
:10548000E1882846FFF7F6FE23893A46314628464A
:10549000FFF747FFE1882846FFF73AFFBDE8F081B4
:1054A0000A884B881A438B881A43CB881A430B8986
:1054B0001A434B891A438B891A43A0F8442070473A
:1054C0004FF6FF71818000210180C180418001720F
:1054D00070470021018041808180C180018141812C
:1054E0008181C1817047002101804180012181803B
:1054F0000021C180018170470021018041808180AD
:10550000C18001814181818170470000002C0140F0
:10551000003401400004004000080040000C00403E
:1055200021B1028842F00102028004E002884FF6B5
:10553000FE731A400280704731B1B0F8442042F443
:105540000042A0F8442005E0B0F84420C2F30E0267
:10555000A0F8442070471AB183890B43838102E08D
:1055600083898B43838170478182704741EA0203BC
:10557000A0F8483070471AB183890B43838102E059
:1055800083898B438381704701894FF6F8721140FC
:10559000018170470A46002101894FF68F73194037
:1055A00011430181704730B504460D462946204617
:1055B000FFF7F0FF208940F00700208130BD2DE982
:1055C000F04104460D4616461F46602D06D13B4667
:1055D000012231462046FFF75AFE05E03B460122F4
:1055E00031462046FFF79DFE29462046FFF7D2FFB1
:1055F000208940F007002081BDE8F08130B50C46DD
:1056000000210189C9B24FF6FF7505EA032515434C
:1056100025432943018130BD2DE9F04105460E4661
:1056200017469846002443463A4631462846FFF737
:10563000E5FF2C894FF6F870044044F007044FF65C
:105640008F70044044F070042C81BDE8F081F0B507
:1056500004460D4616461F463B463246294620461E
:10566000FFF7CCFF208940F480402081F0BD018508
:10567000828270470A46002101884FF68F731940D5
:10568000114301807047F0B50C4615461E460021B7
:10569000002200230189028B038C4FF6F8773940F2
:1056A00021434FF6FC473A4040F201173A434FF688
:1056B000DD773B404FF6FF7707EA06172F433B4362
:1056C000018102830384F0BD0A460021018B4FF65D
:1056D0008F7319401143018370470A460021018BE3
:1056E00048F6FF7319404FF6FF7303EA022319438C
:1056F000018370470A460021818B4FF68F73194052
:105700001143818370470A460021818B48F6FF735D
:1057100019404FF6FF7303EA022319438183704750
:1057200021B1028842F08002028004E002884FF634
:105730007F731A400280704721B1828842F00402D0
:10574000828004E082884FF6FB731A4082807047A3
:1057500021B1828842F00802828004E082884FF6FC
:10576000F7731A408280704721B1828842F00102AB
:10577000828004E082884FF6FE731A408280704770
:105780000A460021018B4FF6F7731940114301833C
:1057900070470A460021018B4FF2FF7319404FF604
:1057A000FF7303EA02231943018370470A4600216D
:1057B000818B4FF6F77319401143818370470A4676
:1057C0000021818B4FF2FF7319404FF6FF7303EAFC
:1057D00002231943818370470A460021018B4FF64B
:1057E000FB7319401143018370470A460021018B66
:1057F0004FF6FF3319404FF6FF7303EA02231943B4
:10580000018370470A460021818B4FF6FB731940D4
:105810001143818370470A460021818B4FF6FF3385
:1058200019404FF6FF7303EA02231943818370473F
:105830000A460021018B4FF67F7319401143018303
:1058400070470A460021018BC1F30E014FF6FF732A
:1058500003EA02231943018370470A460021818B22
:105860004FF67F7319401143818370470A46002128
:10587000818BC1F30E014FF6FF7303EA0223194334
:10588000818370470A460021018C4FF6FD73194051
:105890001143018470470A460021018C4FF6F773CB
:1058A00019401143018470470A460021018C4FF6CC
:1058B000DF7319404FF6FF7303EA021319430184A3
:1058C00070470A460021018C4FF67F7319404FF64E
:1058D000FF7303EA02131943018470470A4600214B
:1058E000018C4FF6FF5319404FF6FF7303EA022372
:1058F0001943018470470A460021018C4FF2FF735F
:1059000019404FF6FF7303EA0223194301847047DD
:105910000A460021018C4DF6FF7319404FF6FF73C4
:1059200003EA023319430184704730B50023012490
:105930008C40A3B2048C9C430484048C02FA01F5CD
:10594000ADB22C43048430BD30B5002304248C4018
:10595000A3B2048C9C430484048C02FA01F5ADB21A
:105960002C43048430BD70B5034600200024184643
:10597000183001258D40ACB21D8CA5431D8409B1A2
:10598000082909D100EB6100056825F07005056064
:105990000568154305600EE00D1FC5F34E0528444C
:1059A000056825F4E045056005684FF6FF7606EAD0
:1059B00002263543056070BD21B1028842F0020223
:1059C000028004E002884FF6FD731A40028070479F
:1059D00021B1028842F00402028004E002884FF6FE
:1059E000FB731A400280704721B1828842F0800226
:1059F000828004E082884FF67F731A40828070476D
:105A000002884FF6F7731A40028002880A43028028
:105A1000704782884FF68F731A40828082880A43CB
:105A20008280704702894FF6F8731A40028102891A
:105A30000A430281704702894FF67F731A40028140
:105A400002890A43028170478184704781857047CB
:105A5000818670470187704781877047A0F84010A2
:105A6000704702884FF6FF431A40028002880A43BB
:105A7000028070470146888E70470146088F704744
:105A80000146888F70470146B1F8400070470146D3
:105A9000888C70470146088D704702460020138AA3
:105AA0000B400BB1012000E000207047CA43028286
:105AB000704730B50246002000230024158A05EA0D
:105AC0000103958905EA010413B10CB1012000E03E
:105AD000002030BDCA4302827047000010B5044662
